{
  "address": "0xB795d08676e70f09E3217EB25D742D4ee6e987e0",
  "abi": [
    {
      "inputs": [
        {
          "internalType": "address[]",
          "name": "fee_dists",
          "type": "address[]"
        },
        {
          "internalType": "uint256[]",
          "name": "tokenIds",
          "type": "uint256[]"
        }
      ],
      "name": "claim",
      "outputs": [],
      "stateMutability": "nonpayable",
      "type": "function"
    }
  ],
  "transactionHash": "0x2bd0a5ca3f586cff735b015315de86db9a52dad147a6749dd5dae8a135503040",
  "args": [],
  "numDeployments": 1,
  "solcInputHash": "09a0a6d17fc369c866a1035c31887165",
  "bytecode": "0x608060405234801561001057600080fd5b5061028f806100206000396000f3fe608060405234801561001057600080fd5b506004361061002b5760003560e01c80637472500114610030575b600080fd5b61004361003e366004610165565b610045565b005b60005b8381101561011257848482818110610062576100626101d1565b905060200201602081019061007791906101e7565b6001600160a01b031663379607f5848484818110610097576100976101d1565b905060200201356040518263ffffffff1660e01b81526004016100bc91815260200190565b6020604051808303816000875af11580156100db573d6000803e3d6000fd5b505050506040513d601f19601f820116820180604052508101906100ff9190610217565b508061010a81610230565b915050610048565b5050505050565b60008083601f84011261012b57600080fd5b50813567ffffffffffffffff81111561014357600080fd5b6020830191508360208260051b850101111561015e57600080fd5b9250929050565b6000806000806040858703121561017b57600080fd5b843567ffffffffffffffff8082111561019357600080fd5b61019f88838901610119565b909650945060208701359150808211156101b857600080fd5b506101c587828801610119565b95989497509550505050565b634e487b7160e01b600052603260045260246000fd5b6000602082840312156101f957600080fd5b81356001600160a01b038116811461021057600080fd5b9392505050565b60006020828403121561022957600080fd5b5051919050565b600060001982141561025257634e487b7160e01b600052601160045260246000fd5b506001019056fea2646970667358221220bca317cf7e00d36bade2505c798f88d24fe705bf7caf934ce494fef8887dc19a64736f6c634300080b0033",
  "devdoc": {
    "kind": "dev",
    "methods": {},
    "version": 1
  },
  "userdoc": {
    "kind": "user",
    "methods": {},
    "version": 1
  },
  "storageLayout": {
    "storage": [],
    "types": null
  }
}