{
  "address": "0x31A1D83C715F4bd6fE7A26f1Ce279Cec15011AE9",
  "abi": [
    {
      "inputs": [
        {
          "internalType": "address",
          "name": "_voting_escrow",
          "type": "address"
        },
        {
          "internalType": "uint256",
          "name": "_start_time",
          "type": "uint256"
        },
        {
          "internalType": "address",
          "name": "_token",
          "type": "address"
        },
        {
          "internalType": "address",
          "name": "_admin",
          "type": "address"
        },
        {
          "internalType": "address",
          "name": "_emergency_return",
          "type": "address"
        }
      ],
      "stateMutability": "nonpayable",
      "type": "constructor"
    },
    {
      "anonymous": false,
      "inputs": [
        {
          "indexed": false,
          "internalType": "uint256",
          "name": "time",
          "type": "uint256"
        },
        {
          "indexed": false,
          "internalType": "uint256",
          "name": "tokens",
          "type": "uint256"
        }
      ],
      "name": "CheckpointToken",
      "type": "event"
    },
    {
      "anonymous": false,
      "inputs": [
        {
          "indexed": false,
          "internalType": "uint256",
          "name": "tokenId",
          "type": "uint256"
        },
        {
          "indexed": false,
          "internalType": "uint256",
          "name": "amount",
          "type": "uint256"
        },
        {
          "indexed": false,
          "internalType": "uint256",
          "name": "claim_epoch",
          "type": "uint256"
        },
        {
          "indexed": false,
          "internalType": "uint256",
          "name": "max_epoch",
          "type": "uint256"
        }
      ],
      "name": "Claimed",
      "type": "event"
    },
    {
      "anonymous": false,
      "inputs": [
        {
          "indexed": false,
          "internalType": "address",
          "name": "old_admin",
          "type": "address"
        },
        {
          "indexed": false,
          "internalType": "address",
          "name": "new_admin",
          "type": "address"
        }
      ],
      "name": "NewAdmin",
      "type": "event"
    },
    {
      "anonymous": false,
      "inputs": [
        {
          "indexed": false,
          "internalType": "address",
          "name": "old_pending_admin",
          "type": "address"
        },
        {
          "indexed": false,
          "internalType": "address",
          "name": "new_pending_admin",
          "type": "address"
        }
      ],
      "name": "NewPendingAdmin",
      "type": "event"
    },
    {
      "inputs": [],
      "name": "accept_admin",
      "outputs": [],
      "stateMutability": "nonpayable",
      "type": "function"
    },
    {
      "inputs": [],
      "name": "admin",
      "outputs": [
        {
          "internalType": "address",
          "name": "",
          "type": "address"
        }
      ],
      "stateMutability": "view",
      "type": "function"
    },
    {
      "inputs": [],
      "name": "checkpoint_token",
      "outputs": [],
      "stateMutability": "nonpayable",
      "type": "function"
    },
    {
      "inputs": [],
      "name": "checkpoint_total_supply",
      "outputs": [],
      "stateMutability": "nonpayable",
      "type": "function"
    },
    {
      "inputs": [
        {
          "internalType": "uint256",
          "name": "_tokenId",
          "type": "uint256"
        }
      ],
      "name": "claim",
      "outputs": [
        {
          "internalType": "uint256",
          "name": "",
          "type": "uint256"
        }
      ],
      "stateMutability": "nonpayable",
      "type": "function"
    },
    {
      "inputs": [
        {
          "internalType": "uint256[]",
          "name": "_tokenIds",
          "type": "uint256[]"
        }
      ],
      "name": "claim_many",
      "outputs": [
        {
          "internalType": "bool",
          "name": "",
          "type": "bool"
        }
      ],
      "stateMutability": "nonpayable",
      "type": "function"
    },
    {
      "inputs": [
        {
          "internalType": "uint256",
          "name": "_tokenId",
          "type": "uint256"
        }
      ],
      "name": "claimable",
      "outputs": [
        {
          "internalType": "uint256",
          "name": "",
          "type": "uint256"
        }
      ],
      "stateMutability": "view",
      "type": "function"
    },
    {
      "inputs": [],
      "name": "emergency_return",
      "outputs": [
        {
          "internalType": "address",
          "name": "",
          "type": "address"
        }
      ],
      "stateMutability": "view",
      "type": "function"
    },
    {
      "inputs": [],
      "name": "is_killed",
      "outputs": [
        {
          "internalType": "bool",
          "name": "",
          "type": "bool"
        }
      ],
      "stateMutability": "view",
      "type": "function"
    },
    {
      "inputs": [],
      "name": "kill_me",
      "outputs": [],
      "stateMutability": "nonpayable",
      "type": "function"
    },
    {
      "inputs": [],
      "name": "last_token_time",
      "outputs": [
        {
          "internalType": "uint256",
          "name": "",
          "type": "uint256"
        }
      ],
      "stateMutability": "view",
      "type": "function"
    },
    {
      "inputs": [],
      "name": "pending_admin",
      "outputs": [
        {
          "internalType": "address",
          "name": "",
          "type": "address"
        }
      ],
      "stateMutability": "view",
      "type": "function"
    },
    {
      "inputs": [
        {
          "internalType": "address",
          "name": "_coin",
          "type": "address"
        }
      ],
      "name": "recover_balance",
      "outputs": [],
      "stateMutability": "nonpayable",
      "type": "function"
    },
    {
      "inputs": [
        {
          "internalType": "address",
          "name": "_addr",
          "type": "address"
        }
      ],
      "name": "set_pending_admin",
      "outputs": [],
      "stateMutability": "nonpayable",
      "type": "function"
    },
    {
      "inputs": [],
      "name": "start_time",
      "outputs": [
        {
          "internalType": "uint256",
          "name": "",
          "type": "uint256"
        }
      ],
      "stateMutability": "view",
      "type": "function"
    },
    {
      "inputs": [],
      "name": "time_cursor",
      "outputs": [
        {
          "internalType": "uint256",
          "name": "",
          "type": "uint256"
        }
      ],
      "stateMutability": "view",
      "type": "function"
    },
    {
      "inputs": [
        {
          "internalType": "uint256",
          "name": "",
          "type": "uint256"
        }
      ],
      "name": "time_cursor_of",
      "outputs": [
        {
          "internalType": "uint256",
          "name": "",
          "type": "uint256"
        }
      ],
      "stateMutability": "view",
      "type": "function"
    },
    {
      "inputs": [],
      "name": "timestamp",
      "outputs": [
        {
          "internalType": "uint256",
          "name": "",
          "type": "uint256"
        }
      ],
      "stateMutability": "view",
      "type": "function"
    },
    {
      "inputs": [],
      "name": "token",
      "outputs": [
        {
          "internalType": "address",
          "name": "",
          "type": "address"
        }
      ],
      "stateMutability": "view",
      "type": "function"
    },
    {
      "inputs": [],
      "name": "token_last_balance",
      "outputs": [
        {
          "internalType": "uint256",
          "name": "",
          "type": "uint256"
        }
      ],
      "stateMutability": "view",
      "type": "function"
    },
    {
      "inputs": [
        {
          "internalType": "uint256",
          "name": "",
          "type": "uint256"
        }
      ],
      "name": "tokens_per_week",
      "outputs": [
        {
          "internalType": "uint256",
          "name": "",
          "type": "uint256"
        }
      ],
      "stateMutability": "view",
      "type": "function"
    },
    {
      "inputs": [
        {
          "internalType": "uint256",
          "name": "",
          "type": "uint256"
        }
      ],
      "name": "user_epoch_of",
      "outputs": [
        {
          "internalType": "uint256",
          "name": "",
          "type": "uint256"
        }
      ],
      "stateMutability": "view",
      "type": "function"
    },
    {
      "inputs": [
        {
          "internalType": "uint256",
          "name": "_tokenId",
          "type": "uint256"
        },
        {
          "internalType": "uint256",
          "name": "_timestamp",
          "type": "uint256"
        }
      ],
      "name": "ve_for_at",
      "outputs": [
        {
          "internalType": "uint256",
          "name": "",
          "type": "uint256"
        }
      ],
      "stateMutability": "view",
      "type": "function"
    },
    {
      "inputs": [
        {
          "internalType": "uint256",
          "name": "",
          "type": "uint256"
        }
      ],
      "name": "ve_supply",
      "outputs": [
        {
          "internalType": "uint256",
          "name": "",
          "type": "uint256"
        }
      ],
      "stateMutability": "view",
      "type": "function"
    },
    {
      "inputs": [],
      "name": "voting_escrow",
      "outputs": [
        {
          "internalType": "address",
          "name": "",
          "type": "address"
        }
      ],
      "stateMutability": "view",
      "type": "function"
    }
  ],
  "args": [
    "0xBe33aD085e4a5559e964FA8790ceB83905062065",
    "1650499200",
    "0x328A7b4d538A2b3942653a9983fdA3C12c571141",
    "0xA5fC0BbfcD05827ed582869b7254b6f141BA84Eb",
    "0xA5fC0BbfcD05827ed582869b7254b6f141BA84Eb"
  ],
  "numDeployments": 1,
  "solcInputHash": "32cca34e5afee13e7ff743205c4f10d1",
  "bytecode": "0x608060405266071afd498d000a805460ff60a81b1916600160a81b1790553480156200002a57600080fd5b5060405162002345380380620023458339810160408190526200004d9162000101565b600062093a806200005f818762000168565b6200006b91906200018b565b600081905560048190556001555066038d7ea4c6800680546001600160a01b03199081166001600160a01b039586161790915566038d7ea4c68005805482169685169690961790955566071afd498d0008805486169284169290921790915566071afd498d000a805490941691161790915550620001b9565b80516001600160a01b0381168114620000fc57600080fd5b919050565b600080600080600060a086880312156200011a57600080fd5b6200012586620000e4565b9450602086015193506200013c60408701620000e4565b92506200014c60608701620000e4565b91506200015c60808701620000e4565b90509295509295909350565b6000826200018657634e487b7160e01b600052601260045260246000fd5b500490565b6000816000190483118215151615620001b457634e487b7160e01b600052601160045260246000fd5b500290565b61217c80620001c96000396000f3fe608060405234801561001057600080fd5b50600436106101735760003560e01c80639c868ac0116100de578063dfe0503111610097578063e671928711610071578063e671928714610318578063edf5999714610331578063f851a44014610344578063fc0c546a1461035d57600080fd5b8063dfe05031146102ef578063e1593b1314610308578063e36988531461031057600080fd5b80639c868ac01461028c578063b21ed502146102a6578063b80777ea146102ae578063d1d58b25146102b6578063d4dafba8146102c9578063db2f5f79146102dc57600080fd5b8063379607f511610130578063379607f51461022c578063486d25fe1461023f578063688098891461025f5780637f58e8f814610272578063811a40fe1461027b578063834ee4171461028357600080fd5b8063127dcbd31461017857806316aea5c0146101945780631f1db043146101b457806322b04bfc146101d7578063290717df146101e65780632c3f531e146101fb575b600080fd5b61018160015481565b6040519081526020015b60405180910390f35b6101816101a2366004611cd1565b60036020526000908152604090205481565b6101c76101c2366004611d31565b610376565b604051901515815260200161018b565b61018166038d7ea4c680075481565b6101f96101f4366004611dec565b61058a565b005b66071afd498d000a54610214906001600160a01b031681565b6040516001600160a01b03909116815260200161018b565b61018161023a366004611cd1565b61060e565b61018161024d366004611cd1565b60026020526000908152604090205481565b61018161026d366004611e09565b6107b8565b61018160045481565b6101f96108fb565b61018160005481565b66071afd498d000a546101c790600160a01b900460ff1681565b6101f9610925565b61018161092d565b6101816102c4366004611cd1565b61094c565b6101816102d7366004611cd1565b610993565b6101f96102ea366004611dec565b6109b6565b66038d7ea4c6800554610214906001600160a01b031681565b6101f9610a86565b6101f9610b1b565b66071afd498d000954610214906001600160a01b031681565b61018161033f366004611cd1565b610bf3565b66071afd498d000854610214906001600160a01b031681565b66038d7ea4c6800654610214906001600160a01b031681565b66071afd498d000a54600090600160a81b900460ff1660011461039857600080fd5b66071afd498d000a805460ff60a81b1916600160a91b179081905560ff600160a01b90910416156103f95760405162461bcd60e51b81526020600482015260066024820152651ada5b1b195960d21b60448201526064015b60405180910390fd5b600154421061040a5761040a610c09565b60045462093a8061041b8183611e41565b6104259190611e63565b66038d7ea4c68005549091506001600160a01b03166000805b855181101561054057600086828151811061045b5761045b611e82565b6020026020010151905080600014156104745750610540565b6000610481828688610db2565b9050801561052b5766038d7ea4c68005546040516331a9108f60e11b8152600481018490526000916001600160a01b031690636352211e90602401602060405180830381865afa1580156104d9573d6000803e3d6000fd5b505050506040513d601f19601f820116820180604052508101906104fd9190611e98565b66038d7ea4c680065490915061051d906001600160a01b031682846111ce565b6105278286611eb5565b9450505b5050808061053890611ecd565b91505061043e565b508015610565578066038d7ea4c68007600082825461055f9190611ee8565b90915550505b6001935050505066071afd498d000a805460ff60a81b1916600160a81b179055919050565b66071afd498d0008546001600160a01b031633146105a757600080fd5b66071afd498d000980546001600160a01b038381166001600160a01b031983168117909355604080519190921680825260208201939093527fca4f2f25d0898edd99413412fb94012f9e54ec8142f9b093e7720646a95b16a9910160405180910390a15050565b66071afd498d000a54600090600160a81b900460ff1660011461063057600080fd5b66071afd498d000a805460ff60a81b1916600160a91b179081905560ff600160a01b909104161561068c5760405162461bcd60e51b81526020600482015260066024820152651ada5b1b195960d21b60448201526064016103f0565b600154421061069d5761069d610c09565b60045462093a806106ae8183611e41565b6106b89190611e63565b66038d7ea4c68005549091506000906106dc9085906001600160a01b031684610db2565b905080156107975766038d7ea4c68005546040516331a9108f60e11b8152600481018690526000916001600160a01b031690636352211e90602401602060405180830381865afa158015610734573d6000803e3d6000fd5b505050506040513d601f19601f820116820180604052508101906107589190611e98565b66038d7ea4c6800654909150610778906001600160a01b031682846111ce565b8166038d7ea4c6800760008282546107909190611ee8565b9091555050505b91505066071afd498d000a805460ff60a81b1916600160a81b179055919050565b66038d7ea4c680055460405163391044d760e21b8152600481018490526000916001600160a01b0316908290829063e441135c90602401602060405180830381865afa15801561080c573d6000803e3d6000fd5b505050506040513d601f19601f820116820180604052508101906108309190611eff565b9050600061084083878785611225565b6040516309bb79ed60e11b815260048101889052602481018290529091506000906001600160a01b03851690631376f3da90604401608060405180830381865afa158015610892573d6000803e3d6000fd5b505050506040513d601f19601f820116820180604052508101906108b69190611f2f565b90506108f08160400151876108cb9190611ee8565b82602001516108da9190611fa1565b82516108e6919061203f565b600f0b600061131d565b979650505050505050565b66071afd498d0008546001600160a01b0316331461091b5761091b61208f565b610923611334565b565b610923610c09565b600062093a8061093d8142611e41565b6109479190611e63565b905090565b60008062093a80806004546109619190611e41565b61096b9190611e63565b66038d7ea4c680055490915061098c9084906001600160a01b031683611591565b9392505050565b66038d7ea4c680088166038d7ea4c6800081106109af57600080fd5b0154905081565b66071afd498d0008546001600160a01b031633146109d357600080fd5b66038d7ea4c68006546001600160a01b03828116911614156109f457600080fd5b6040516370a0823160e01b81523060048201526000906001600160a01b038316906370a0823190602401602060405180830381865afa158015610a3b573d6000803e3d6000fd5b505050506040513d601f19601f82011682018060405250810190610a5f9190611eff565b66071afd498d000854909150610a82906001600160a01b038481169116836111ce565b5050565b66071afd498d0009546001600160a01b03163314610aa357600080fd5b66071afd498d0008805466071afd498d000980546001600160a01b038082166001600160a01b0319808616821790965594909116909155604080519190921680825260208201939093527ff9ffabca9c8276e99321725bcb43fb076a6c66a54b7f21c4e8146d8519b417dc910160405180910390a150565b66071afd498d0008546001600160a01b03163314610b3857600080fd5b66071afd498d000a805460ff60a01b1916600160a01b17905566038d7ea4c68006546040516370a0823160e01b81523060048201526000916001600160a01b0316906370a0823190602401602060405180830381865afa158015610ba0573d6000803e3d6000fd5b505050506040513d601f19601f82011682018060405250810190610bc49190611eff565b66071afd498d000a5466038d7ea4c6800654919250610bf0916001600160a01b039081169116836111ce565b50565b60058166038d7ea4c6800081106109af57600080fd5b66038d7ea4c68005546001546001600160a01b0390911690600062093a80610c318142611e41565b610c3b9190611e63565b9050826001600160a01b031663c2c4c5c16040518163ffffffff1660e01b8152600401600060405180830381600087803b158015610c7857600080fd5b505af1158015610c8c573d6000803e3d6000fd5b5050505060005b6014811015610daa5781831115610ca957610daa565b6000610cb58585611926565b60405163d1febfb960e01b8152600481018290529091506000906001600160a01b0387169063d1febfb990602401608060405180830381865afa158015610d00573d6000803e3d6000fd5b505050506040513d601f19601f82011682018060405250810190610d249190611f2f565b905060008160400151861115610d46576040820151610d439087611ee8565b90505b610d65818360200151610d599190611fa1565b83516108e6919061203f565b66038d7ea4c680088766038d7ea4c680008110610d8457610d84611e82565b0155505050610d9662093a8084611eb5565b925080610da281611ecd565b915050610c93565b505060015550565b60405163391044d760e21b8152600481018490526000908190819081906001600160a01b0387169063e441135c90602401602060405180830381865afa158015610e00573d6000803e3d6000fd5b505050506040513d601f19601f82011682018060405250810190610e249190611eff565b60005490915081610e3c57600094505050505061098c565b60008881526002602052604090205480610e6357610e5c888a8486611225565b9450610e75565b60008981526003602052604090205494505b84610e7f57600194505b6040516309bb79ed60e11b8152600481018a9052602481018690526000906001600160a01b038a1690631376f3da90604401608060405180830381865afa158015610ece573d6000803e3d6000fd5b505050506040513d601f19601f82011682018060405250810190610ef29190611f2f565b905081610f345762093a8080600162093a808460400151610f139190611eb5565b610f1d9190611ee8565b610f279190611e41565b610f319190611e63565b91505b6004548210610f4c576000965050505050505061098c565b82821015610f58578291505b6040805160808101825260008082526020820181905291810182905260608101829052905b603281101561114357898410610f9257611143565b82604001518410158015610fa65750858811155b1561106c57610fb6600189611eb5565b975082915085881115610ff55760405180608001604052806000600f0b81526020016000600f0b81526020016000815260200160008152509250611131565b6040516309bb79ed60e11b8152600481018d9052602481018990526001600160a01b038c1690631376f3da90604401608060405180830381865afa158015611041573d6000803e3d6000fd5b505050506040513d601f19601f820116820180604052508101906110659190611f2f565b9250611131565b600082604001518561107e9190611ee8565b905060006110a18460200151836110959190611fa1565b85516108e6919061203f565b9050801580156110b05750878a115b156110bc575050611143565b801561111f5766038d7ea4c680088666038d7ea4c6800081106110e1576110e1611e82565b015460058766038d7ea4c6800081106110fc576110fc611e82565b01546111089083611e63565b6111129190611e41565b61111c908a611eb5565b98505b61112c62093a8087611eb5565b955050505b8061113b81611ecd565b915050610f7d565b506111588561115360018a611ee8565b611a7f565b60008c8152600360209081526040808320849055600282529182902086905581518e8152908101899052908101829052606081018790529097507fcae2990aa9af8eb1c64713b7eddb3a80bf18e49a94a13fe0d0002b5d61d58f009060800160405180910390a150939998505050505050505050565b604080516001600160a01b038416602482015260448082018490528251808303909101815260649091019091526020810180516001600160e01b031663a9059cbb60e01b179052611220908490611a8e565b505050565b60008082815b60808110156113115781831061124057611311565b6000600261124e8486611eb5565b611259906002611eb5565b6112639190611e41565b6040516309bb79ed60e11b8152600481018a9052602481018290529091506000906001600160a01b038b1690631376f3da90604401608060405180830381865afa1580156112b5573d6000803e3d6000fd5b505050506040513d601f19601f820116820180604052508101906112d99190611f2f565b9050878160400151116112ee578194506112fc565b6112f9600183611ee8565b93505b5050808061130990611ecd565b91505061122b565b50909695505050505050565b60008183101561132d578161098c565b5090919050565b66038d7ea4c68006546040516370a0823160e01b81523060048201526000916001600160a01b0316906370a0823190602401602060405180830381865afa158015611383573d6000803e3d6000fd5b505050506040513d601f19601f820116820180604052508101906113a79190611eff565b9050600066038d7ea4c6800754826113bf9190611ee8565b66038d7ea4c6800783905560045490915060006113dc8242611ee8565b426004559050600062093a806113f28185611e41565b6113fc9190611e63565b90506000805b601481101561154f5761141862093a8084611eb5565b9150814210156114a1578315801561142f57508442145b15611469578560058466038d7ea4c68000811061144e5761144e611e82565b01600082825461145e9190611eb5565b9091555061154f9050565b836114748642611ee8565b61147e9088611e63565b6114889190611e41565b60058466038d7ea4c68000811061144e5761144e611e82565b831580156114ae57508482145b156114e8578560058466038d7ea4c6800081106114cd576114cd611e82565b0160008282546114dd9190611eb5565b909155506115369050565b836114f38684611ee8565b6114fd9088611e63565b6115079190611e41565b60058466038d7ea4c68000811061152057611520611e82565b0160008282546115309190611eb5565b90915550505b819450819250808061154790611ecd565b915050611402565b5060408051428152602081018790527fce749457b74e10f393f2c6b1ce4261b78791376db5a3f501477a809f03f500d6910160405180910390a1505050505050565b60405163391044d760e21b8152600481018490526000908190819081906001600160a01b0387169063e441135c90602401602060405180830381865afa1580156115df573d6000803e3d6000fd5b505050506040513d601f19601f820116820180604052508101906116039190611eff565b6000549091508161161b57600094505050505061098c565b600088815260026020526040902054806116425761163b888a8486611225565b9450611654565b60008981526003602052604090205494505b8461165e57600194505b6040516309bb79ed60e11b8152600481018a9052602481018690526000906001600160a01b038a1690631376f3da90604401608060405180830381865afa1580156116ad573d6000803e3d6000fd5b505050506040513d601f19601f820116820180604052508101906116d19190611f2f565b9050816117135762093a8080600162093a8084604001516116f29190611eb5565b6116fc9190611ee8565b6117069190611e41565b6117109190611e63565b91505b600454821061172b576000965050505050505061098c565b82821015611737578291505b6040805160808101825260008082526020820181905291810182905260608101829052905b60328110156119165789841061177157611916565b826040015184101580156117855750858811155b1561184b57611795600189611eb5565b9750829150858811156117d45760405180608001604052806000600f0b81526020016000600f0b81526020016000815260200160008152509250611904565b6040516309bb79ed60e11b8152600481018d9052602481018990526001600160a01b038c1690631376f3da90604401608060405180830381865afa158015611820573d6000803e3d6000fd5b505050506040513d601f19601f820116820180604052508101906118449190611f2f565b9250611904565b600082604001518561185d9190611ee8565b905060006118748460200151836110959190611fa1565b9050801580156118835750878a115b1561188f575050611916565b80156118f25766038d7ea4c680088666038d7ea4c6800081106118b4576118b4611e82565b015460058766038d7ea4c6800081106118cf576118cf611e82565b01546118db9083611e63565b6118e59190611e41565b6118ef908a611eb5565b98505b6118ff62093a8087611eb5565b955050505b8061190e81611ecd565b91505061175c565b50949a9950505050505050505050565b600080600090506000846001600160a01b031663900cf0cf6040518163ffffffff1660e01b8152600401602060405180830381865afa15801561196d573d6000803e3d6000fd5b505050506040513d601f19601f820116820180604052508101906119919190611eff565b905060005b6080811015611a75578183106119ab57611a75565b600060026119b98486611eb5565b6119c4906002611eb5565b6119ce9190611e41565b60405163d1febfb960e01b8152600481018290529091506000906001600160a01b0389169063d1febfb990602401608060405180830381865afa158015611a19573d6000803e3d6000fd5b505050506040513d601f19601f82011682018060405250810190611a3d9190611f2f565b905086816040015111611a5257819450611a60565b611a5d600183611ee8565b93505b50508080611a6d90611ecd565b915050611996565b5090949350505050565b600081831061132d578161098c565b6000611ae3826040518060400160405280602081526020017f5361666545524332303a206c6f772d6c6576656c2063616c6c206661696c6564815250856001600160a01b0316611b609092919063ffffffff16565b8051909150156112205780806020019051810190611b0191906120a5565b6112205760405162461bcd60e51b815260206004820152602a60248201527f5361666545524332303a204552433230206f7065726174696f6e20646964206e6044820152691bdd081cdd58d8d9595960b21b60648201526084016103f0565b6060611b6f8484600085611b77565b949350505050565b606082471015611bd85760405162461bcd60e51b815260206004820152602660248201527f416464726573733a20696e73756666696369656e742062616c616e636520666f6044820152651c8818d85b1b60d21b60648201526084016103f0565b6001600160a01b0385163b611c2f5760405162461bcd60e51b815260206004820152601d60248201527f416464726573733a2063616c6c20746f206e6f6e2d636f6e747261637400000060448201526064016103f0565b600080866001600160a01b03168587604051611c4b91906120f7565b60006040518083038185875af1925050503d8060008114611c88576040519150601f19603f3d011682016040523d82523d6000602084013e611c8d565b606091505b50915091506108f082828660608315611ca757508161098c565b825115611cb75782518084602001fd5b8160405162461bcd60e51b81526004016103f09190612113565b600060208284031215611ce357600080fd5b5035919050565b634e487b7160e01b600052604160045260246000fd5b604051601f8201601f1916810167ffffffffffffffff81118282101715611d2957611d29611cea565b604052919050565b60006020808385031215611d4457600080fd5b823567ffffffffffffffff80821115611d5c57600080fd5b818501915085601f830112611d7057600080fd5b813581811115611d8257611d82611cea565b8060051b9150611d93848301611d00565b8181529183018401918481019088841115611dad57600080fd5b938501935b83851015611dcb57843582529385019390850190611db2565b98975050505050505050565b6001600160a01b0381168114610bf057600080fd5b600060208284031215611dfe57600080fd5b813561098c81611dd7565b60008060408385031215611e1c57600080fd5b50508035926020909101359150565b634e487b7160e01b600052601160045260246000fd5b600082611e5e57634e487b7160e01b600052601260045260246000fd5b500490565b6000816000190483118215151615611e7d57611e7d611e2b565b500290565b634e487b7160e01b600052603260045260246000fd5b600060208284031215611eaa57600080fd5b815161098c81611dd7565b60008219821115611ec857611ec8611e2b565b500190565b6000600019821415611ee157611ee1611e2b565b5060010190565b600082821015611efa57611efa611e2b565b500390565b600060208284031215611f1157600080fd5b5051919050565b8051600f81900b8114611f2a57600080fd5b919050565b600060808284031215611f4157600080fd5b6040516080810181811067ffffffffffffffff82111715611f6457611f64611cea565b604052611f7083611f18565b8152611f7e60208401611f18565b602082015260408301516040820152606083015160608201528091505092915050565b600081600f0b83600f0b60016001607f1b03600082136000841383830485118282161615611fd157611fd1611e2b565b6f7fffffffffffffffffffffffffffffff196000851282811687830587121615611ffd57611ffd611e2b565b6000871292508582058712848416161561201957612019611e2b565b8585058712818416161561202f5761202f611e2b565b5050509290910295945050505050565b600081600f0b83600f0b600081128160016001607f1b03190183128115161561206a5761206a611e2b565b8160016001607f1b0301831381161561208557612085611e2b565b5090039392505050565b634e487b7160e01b600052600160045260246000fd5b6000602082840312156120b757600080fd5b8151801515811461098c57600080fd5b60005b838110156120e25781810151838201526020016120ca565b838111156120f1576000848401525b50505050565b600082516121098184602087016120c7565b9190910192915050565b60208152600082518060208401526121328160408501602087016120c7565b601f01601f1916919091016040019291505056fea2646970667358221220ce8a2045a2d43fd0c33b486ade50bc7753c2d49f265314797d653ebb80d63afd64736f6c634300080b0033",
  "devdoc": {
    "kind": "dev",
    "methods": {},
    "stateVariables": {
      "_not_entered": {
        "details": "reentrancy guard"
      }
    },
    "version": 1
  },
  "userdoc": {
    "kind": "user",
    "methods": {},
    "version": 1
  },
  "storageLayout": {
    "storage": [
      {
        "astId": 736,
        "contract": "contracts/fee_dist.sol:fee_dist",
        "label": "start_time",
        "offset": 0,
        "slot": "0",
        "type": "t_uint256"
      },
      {
        "astId": 738,
        "contract": "contracts/fee_dist.sol:fee_dist",
        "label": "time_cursor",
        "offset": 0,
        "slot": "1",
        "type": "t_uint256"
      },
      {
        "astId": 742,
        "contract": "contracts/fee_dist.sol:fee_dist",
        "label": "time_cursor_of",
        "offset": 0,
        "slot": "2",
        "type": "t_mapping(t_uint256,t_uint256)"
      },
      {
        "astId": 746,
        "contract": "contracts/fee_dist.sol:fee_dist",
        "label": "user_epoch_of",
        "offset": 0,
        "slot": "3",
        "type": "t_mapping(t_uint256,t_uint256)"
      },
      {
        "astId": 748,
        "contract": "contracts/fee_dist.sol:fee_dist",
        "label": "last_token_time",
        "offset": 0,
        "slot": "4",
        "type": "t_uint256"
      },
      {
        "astId": 752,
        "contract": "contracts/fee_dist.sol:fee_dist",
        "label": "tokens_per_week",
        "offset": 0,
        "slot": "5",
        "type": "t_array(t_uint256)1000000000000000_storage"
      },
      {
        "astId": 754,
        "contract": "contracts/fee_dist.sol:fee_dist",
        "label": "voting_escrow",
        "offset": 0,
        "slot": "1000000000000005",
        "type": "t_address"
      },
      {
        "astId": 756,
        "contract": "contracts/fee_dist.sol:fee_dist",
        "label": "token",
        "offset": 0,
        "slot": "1000000000000006",
        "type": "t_address"
      },
      {
        "astId": 758,
        "contract": "contracts/fee_dist.sol:fee_dist",
        "label": "token_last_balance",
        "offset": 0,
        "slot": "1000000000000007",
        "type": "t_uint256"
      },
      {
        "astId": 762,
        "contract": "contracts/fee_dist.sol:fee_dist",
        "label": "ve_supply",
        "offset": 0,
        "slot": "1000000000000008",
        "type": "t_array(t_uint256)1000000000000000_storage"
      },
      {
        "astId": 764,
        "contract": "contracts/fee_dist.sol:fee_dist",
        "label": "admin",
        "offset": 0,
        "slot": "2000000000000008",
        "type": "t_address"
      },
      {
        "astId": 766,
        "contract": "contracts/fee_dist.sol:fee_dist",
        "label": "pending_admin",
        "offset": 0,
        "slot": "2000000000000009",
        "type": "t_address"
      },
      {
        "astId": 768,
        "contract": "contracts/fee_dist.sol:fee_dist",
        "label": "emergency_return",
        "offset": 0,
        "slot": "2000000000000010",
        "type": "t_address"
      },
      {
        "astId": 770,
        "contract": "contracts/fee_dist.sol:fee_dist",
        "label": "is_killed",
        "offset": 20,
        "slot": "2000000000000010",
        "type": "t_bool"
      },
      {
        "astId": 780,
        "contract": "contracts/fee_dist.sol:fee_dist",
        "label": "_entered_state",
        "offset": 21,
        "slot": "2000000000000010",
        "type": "t_uint8"
      }
    ],
    "types": {
      "t_address": {
        "encoding": "inplace",
        "label": "address",
        "numberOfBytes": "20"
      },
      "t_array(t_uint256)1000000000000000_storage": {
        "base": "t_uint256",
        "encoding": "inplace",
        "label": "uint256[1000000000000000]",
        "numberOfBytes": "32000000000000000"
      },
      "t_bool": {
        "encoding": "inplace",
        "label": "bool",
        "numberOfBytes": "1"
      },
      "t_mapping(t_uint256,t_uint256)": {
        "encoding": "mapping",
        "key": "t_uint256",
        "label": "mapping(uint256 => uint256)",
        "numberOfBytes": "32",
        "value": "t_uint256"
      },
      "t_uint256": {
        "encoding": "inplace",
        "label": "uint256",
        "numberOfBytes": "32"
      },
      "t_uint8": {
        "encoding": "inplace",
        "label": "uint8",
        "numberOfBytes": "1"
      }
    }
  }
}